{
  "contractName": "Campaign",
  "abi": [
    {
      "inputs": [
        {
          "internalType": "uint256",
          "name": "minimum",
          "type": "uint256"
        },
        {
          "internalType": "address",
          "name": "creator",
          "type": "address"
        }
      ],
      "stateMutability": "nonpayable",
      "type": "constructor"
    },
    {
      "inputs": [
        {
          "internalType": "address",
          "name": "",
          "type": "address"
        }
      ],
      "name": "approvers",
      "outputs": [
        {
          "internalType": "bool",
          "name": "",
          "type": "bool"
        }
      ],
      "stateMutability": "view",
      "type": "function"
    },
    {
      "inputs": [],
      "name": "approversCount",
      "outputs": [
        {
          "internalType": "uint256",
          "name": "",
          "type": "uint256"
        }
      ],
      "stateMutability": "view",
      "type": "function"
    },
    {
      "inputs": [],
      "name": "manager",
      "outputs": [
        {
          "internalType": "address",
          "name": "",
          "type": "address"
        }
      ],
      "stateMutability": "view",
      "type": "function"
    },
    {
      "inputs": [],
      "name": "minimumContribution",
      "outputs": [
        {
          "internalType": "uint256",
          "name": "",
          "type": "uint256"
        }
      ],
      "stateMutability": "view",
      "type": "function"
    },
    {
      "inputs": [
        {
          "internalType": "uint256",
          "name": "",
          "type": "uint256"
        }
      ],
      "name": "requests",
      "outputs": [
        {
          "internalType": "string",
          "name": "description",
          "type": "string"
        },
        {
          "internalType": "uint256",
          "name": "value",
          "type": "uint256"
        },
        {
          "internalType": "address",
          "name": "recipient",
          "type": "address"
        },
        {
          "internalType": "bool",
          "name": "complete",
          "type": "bool"
        },
        {
          "internalType": "uint256",
          "name": "approvalCount",
          "type": "uint256"
        }
      ],
      "stateMutability": "view",
      "type": "function"
    },
    {
      "inputs": [],
      "name": "contribute",
      "outputs": [],
      "stateMutability": "payable",
      "type": "function"
    },
    {
      "inputs": [
        {
          "internalType": "string",
          "name": "description",
          "type": "string"
        },
        {
          "internalType": "uint256",
          "name": "value",
          "type": "uint256"
        },
        {
          "internalType": "address",
          "name": "recipient",
          "type": "address"
        }
      ],
      "name": "createRequest",
      "outputs": [],
      "stateMutability": "nonpayable",
      "type": "function"
    },
    {
      "inputs": [
        {
          "internalType": "uint256",
          "name": "index",
          "type": "uint256"
        }
      ],
      "name": "approveRequest",
      "outputs": [],
      "stateMutability": "nonpayable",
      "type": "function"
    },
    {
      "inputs": [
        {
          "internalType": "uint256",
          "name": "index",
          "type": "uint256"
        }
      ],
      "name": "finalizeRequest",
      "outputs": [],
      "stateMutability": "nonpayable",
      "type": "function"
    },
    {
      "inputs": [],
      "name": "getSummary",
      "outputs": [
        {
          "internalType": "uint256",
          "name": "",
          "type": "uint256"
        },
        {
          "internalType": "uint256",
          "name": "",
          "type": "uint256"
        },
        {
          "internalType": "uint256",
          "name": "",
          "type": "uint256"
        },
        {
          "internalType": "uint256",
          "name": "",
          "type": "uint256"
        },
        {
          "internalType": "address",
          "name": "",
          "type": "address"
        }
      ],
      "stateMutability": "view",
      "type": "function"
    },
    {
      "inputs": [],
      "name": "getRequestsCount",
      "outputs": [
        {
          "internalType": "uint256",
          "name": "",
          "type": "uint256"
        }
      ],
      "stateMutability": "view",
      "type": "function"
    }
  ],
  "bytecode": "0x60806040523480156200001157600080fd5b506040516200107f3803806200107f83398181016040528101906200003791906200012c565b80600160006101000a81548173ffffffffffffffffffffffffffffffffffffffff021916908373ffffffffffffffffffffffffffffffffffffffff16021790555081600281905550505062000173565b600080fd5b6000819050919050565b620000a1816200008c565b8114620000ad57600080fd5b50565b600081519050620000c18162000096565b92915050565b600073ffffffffffffffffffffffffffffffffffffffff82169050919050565b6000620000f482620000c7565b9050919050565b6200010681620000e7565b81146200011257600080fd5b50565b6000815190506200012681620000fb565b92915050565b6000806040838503121562000146576200014562000087565b5b60006200015685828601620000b0565b9250506020620001698582860162000115565b9150509250929050565b610efc80620001836000396000f3fe60806040526004361061009c5760003560e01c806381d12c581161006457806381d12c581461018c57806382fde093146101cd5780638a9cfd55146101f8578063937e09b114610221578063d7bb99ba1461024c578063d7d1bbdb146102565761009c565b806303441006146100a15780630a144391146100ca5780633410452a146101075780634051ddac14610132578063481c6a7514610161575b600080fd5b3480156100ad57600080fd5b506100c860048036038101906100c39190610932565b61027f565b005b3480156100d657600080fd5b506100f160048036038101906100ec91906109bd565b6103c8565b6040516100fe9190610a05565b60405180910390f35b34801561011357600080fd5b5061011c6103e8565b6040516101299190610a2f565b60405180910390f35b34801561013e57600080fd5b506101476103f4565b604051610158959493929190610a59565b60405180910390f35b34801561016d57600080fd5b5061017661043d565b6040516101839190610aac565b60405180910390f35b34801561019857600080fd5b506101b360048036038101906101ae9190610932565b610463565b6040516101c4959493929190610b60565b60405180910390f35b3480156101d957600080fd5b506101e261055e565b6040516101ef9190610a2f565b60405180910390f35b34801561020457600080fd5b5061021f600480360381019061021a9190610cef565b610564565b005b34801561022d57600080fd5b50610236610673565b6040516102439190610a2f565b60405180910390f35b610254610679565b005b34801561026257600080fd5b5061027d60048036038101906102789190610932565b6106f9565b005b600160009054906101000a900473ffffffffffffffffffffffffffffffffffffffff1673ffffffffffffffffffffffffffffffffffffffff163373ffffffffffffffffffffffffffffffffffffffff16146102d957600080fd5b60008082815481106102ee576102ed610d5e565b5b90600052602060002090600502019050600260045461030d9190610deb565b81600301541161031c57600080fd5b8060020160149054906101000a900460ff161561033857600080fd5b8060020160009054906101000a900473ffffffffffffffffffffffffffffffffffffffff1673ffffffffffffffffffffffffffffffffffffffff166108fc82600101549081150290604051600060405180830381858888f193505050501580156103a6573d6000803e3d6000fd5b5060018160020160146101000a81548160ff0219169083151502179055505050565b60036020528060005260406000206000915054906101000a900460ff1681565b60008080549050905090565b600080600080600060025447600080549050600454600160009054906101000a900473ffffffffffffffffffffffffffffffffffffffff16945094509450945094509091929394565b600160009054906101000a900473ffffffffffffffffffffffffffffffffffffffff1681565b6000818154811061047357600080fd5b906000526020600020906005020160009150905080600001805461049690610e4b565b80601f01602080910402602001604051908101604052809291908181526020018280546104c290610e4b565b801561050f5780601f106104e45761010080835404028352916020019161050f565b820191906000526020600020905b8154815290600101906020018083116104f257829003601f168201915b5050505050908060010154908060020160009054906101000a900473ffffffffffffffffffffffffffffffffffffffff16908060020160149054906101000a900460ff16908060030154905085565b60045481565b600160009054906101000a900473ffffffffffffffffffffffffffffffffffffffff1673ffffffffffffffffffffffffffffffffffffffff163373ffffffffffffffffffffffffffffffffffffffff16146105be57600080fd5b6000806001816001815401808255809150500390600052602060002090600502019050838160000190805190602001906105f9929190610845565b50828160010181905550818160020160006101000a81548173ffffffffffffffffffffffffffffffffffffffff021916908373ffffffffffffffffffffffffffffffffffffffff16021790555060008160020160146101000a81548160ff0219169083151502179055506000816003018190555050505050565b60025481565b600254341161068757600080fd5b6001600360003373ffffffffffffffffffffffffffffffffffffffff1673ffffffffffffffffffffffffffffffffffffffff16815260200190815260200160002060006101000a81548160ff021916908315150217905550600460008154809291906106f290610e7d565b9190505550565b600080828154811061070e5761070d610d5e565b5b90600052602060002090600502019050600360003373ffffffffffffffffffffffffffffffffffffffff1673ffffffffffffffffffffffffffffffffffffffff16815260200190815260200160002060009054906101000a900460ff1661077457600080fd5b8060040160003373ffffffffffffffffffffffffffffffffffffffff1673ffffffffffffffffffffffffffffffffffffffff16815260200190815260200160002060009054906101000a900460ff16156107cd57600080fd5b60018160040160003373ffffffffffffffffffffffffffffffffffffffff1673ffffffffffffffffffffffffffffffffffffffff16815260200190815260200160002060006101000a81548160ff02191690831515021790555080600301600081548092919061083c90610e7d565b91905055505050565b82805461085190610e4b565b90600052602060002090601f01602090048101928261087357600085556108ba565b82601f1061088c57805160ff19168380011785556108ba565b828001600101855582156108ba579182015b828111156108b957825182559160200191906001019061089e565b5b5090506108c791906108cb565b5090565b5b808211156108e45760008160009055506001016108cc565b5090565b6000604051905090565b600080fd5b600080fd5b6000819050919050565b61090f816108fc565b811461091a57600080fd5b50565b60008135905061092c81610906565b92915050565b600060208284031215610948576109476108f2565b5b60006109568482850161091d565b91505092915050565b600073ffffffffffffffffffffffffffffffffffffffff82169050919050565b600061098a8261095f565b9050919050565b61099a8161097f565b81146109a557600080fd5b50565b6000813590506109b781610991565b92915050565b6000602082840312156109d3576109d26108f2565b5b60006109e1848285016109a8565b91505092915050565b60008115159050919050565b6109ff816109ea565b82525050565b6000602082019050610a1a60008301846109f6565b92915050565b610a29816108fc565b82525050565b6000602082019050610a446000830184610a20565b92915050565b610a538161097f565b82525050565b600060a082019050610a6e6000830188610a20565b610a7b6020830187610a20565b610a886040830186610a20565b610a956060830185610a20565b610aa26080830184610a4a565b9695505050505050565b6000602082019050610ac16000830184610a4a565b92915050565b600081519050919050565b600082825260208201905092915050565b60005b83811015610b01578082015181840152602081019050610ae6565b83811115610b10576000848401525b50505050565b6000601f19601f8301169050919050565b6000610b3282610ac7565b610b3c8185610ad2565b9350610b4c818560208601610ae3565b610b5581610b16565b840191505092915050565b600060a0820190508181036000830152610b7a8188610b27565b9050610b896020830187610a20565b610b966040830186610a4a565b610ba360608301856109f6565b610bb06080830184610a20565b9695505050505050565b600080fd5b600080fd5b7f4e487b7100000000000000000000000000000000000000000000000000000000600052604160045260246000fd5b610bfc82610b16565b810181811067ffffffffffffffff82111715610c1b57610c1a610bc4565b5b80604052505050565b6000610c2e6108e8565b9050610c3a8282610bf3565b919050565b600067ffffffffffffffff821115610c5a57610c59610bc4565b5b610c6382610b16565b9050602081019050919050565b82818337600083830152505050565b6000610c92610c8d84610c3f565b610c24565b905082815260208101848484011115610cae57610cad610bbf565b5b610cb9848285610c70565b509392505050565b600082601f830112610cd657610cd5610bba565b5b8135610ce6848260208601610c7f565b91505092915050565b600080600060608486031215610d0857610d076108f2565b5b600084013567ffffffffffffffff811115610d2657610d256108f7565b5b610d3286828701610cc1565b9350506020610d438682870161091d565b9250506040610d54868287016109a8565b9150509250925092565b7f4e487b7100000000000000000000000000000000000000000000000000000000600052603260045260246000fd5b7f4e487b7100000000000000000000000000000000000000000000000000000000600052601260045260246000fd5b7f4e487b7100000000000000000000000000000000000000000000000000000000600052601160045260246000fd5b6000610df6826108fc565b9150610e01836108fc565b925082610e1157610e10610d8d565b5b828204905092915050565b7f4e487b7100000000000000000000000000000000000000000000000000000000600052602260045260246000fd5b60006002820490506001821680610e6357607f821691505b60208210811415610e7757610e76610e1c565b5b50919050565b6000610e88826108fc565b91507fffffffffffffffffffffffffffffffffffffffffffffffffffffffffffffffff821415610ebb57610eba610dbc565b5b60018201905091905056fea26469706673582212207b66f8c5e033b654334e4b852c4f3660785353d42382921a7b7630eb569dec7264736f6c63430008090033",
  "immutableReferences": {},
  "source": "// SPDX-License-Identifier: MIT\n\npragma solidity ^0.8.9;\n\ncontract CampaignFactory {\n  address payable[] public deployedCampaigns;\n\n  function createCampaign(uint minimum) public {\n    address newCampaign = address(new Campaign(minimum, msg.sender));\n    deployedCampaigns.push(payable(newCampaign));\n  }\n\n  function getDeployedCampaigns() public view returns (address payable[] memory) {\n    return deployedCampaigns;\n  }\n}\n\ncontract Campaign {\n  struct Request {\n    string description;\n    uint value;\n    address recipient;\n    bool complete;\n    uint approvalCount;\n    mapping(address => bool) approvals;\n  }\n\n  Request[] public requests;\n  address public manager;\n  uint public minimumContribution;\n  mapping(address => bool) public approvers;\n  uint public approversCount;\n\n  modifier restricted() {\n    require(msg.sender == manager);\n    _;\n  }\n\n  constructor (uint minimum, address creator) {\n    manager = creator;\n    minimumContribution = minimum;\n  }\n\n  function contribute() public payable {\n    require(msg.value > minimumContribution);\n\n    approvers[msg.sender] = true;\n    approversCount++;\n  }\n\n  function createRequest(string memory description, uint value, address recipient) public restricted {\n    Request storage newRequest = requests.push();\n    newRequest.description = description;\n    newRequest.value = value;\n    newRequest.recipient = recipient;\n    newRequest.complete = false;\n    newRequest.approvalCount = 0;\n  }\n\n  function approveRequest(uint index) public {\n    Request storage request = requests[index];\n\n    require(approvers[msg.sender]);\n    require(!request.approvals[msg.sender]);\n\n    request.approvals[msg.sender] = true;\n    request.approvalCount++;\n  }\n\n  function finalizeRequest(uint index) public restricted {\n    Request storage request = requests[index];\n\n    require(request.approvalCount > (approversCount / 2));\n    require(!request.complete);\n\n    payable(request.recipient).transfer(request.value);\n    request.complete = true;\n  }\n\n  function getSummary() public view returns (uint, uint, uint, uint, address) {\n    return (\n      minimumContribution,\n      address(this).balance,\n      requests.length,\n      approversCount,\n      manager\n    );\n  }\n\n  function getRequestsCount() public view returns (uint) {\n    return requests.length;\n  }\n}",
  "sourcePath": "/Users/RVR/Desktop/Projects/udemy/kickstart-updated/ethereum/contracts/Campaign.sol",
  "compiler": {
    "name": "solc",
    "version": "0.8.9+commit.e5eed63a.Emscripten.clang"
  },
  "schemaVersion": "3.4.15",
  "updatedAt": "2023-08-19T16:06:20.208Z",
  "devdoc": {
    "kind": "dev",
    "methods": {},
    "version": 1
  },
  "userdoc": {
    "kind": "user",
    "methods": {},
    "version": 1
  }
}